:020000040000FA
:02000000F42BDF
:1002C8008312200883169B008312220883169A0043
:1002D8001C1555309D00AA309D009C14080018304C
:1002E800831687000430831287000030A000A10025
:1002F8006030A2000030A300642108000830831693
:1003080087001230831287000030A000A10045301A
:10031800A2000030A3006421080083168715FD3071
:100328008312A0000030A100E721831687118312F1
:100338008715FD30A0000030A100E72108008312D6
:10034800200883169B001C141A088312A200A3011C
:100358002208A4002308A5002508A1002408A0005D
:1003680008008316071283120716FD30A00000301C
:10037800A100E72183160716FD308312A000003084
:10038800A100E7210800103083168700013083128E
:1003980087008510B5010030A000A1002530A2001B
:1003A8000030A3006421FD308312A0000030A100BA
:1003B800E72101308312A0000030A1000030A20024
:1003C800A300642108008316811281110115811090
:1003D80001108312200881000130A2000030A30020
:1003E8000B1DF729F829F4290B1183122008810025
:1003F8000130A2070318A30A0030A3072308803A94
:10040800DF0080305F02031D0B2AC9302202031C63
:100418000E2A0F2AF4290800183083168700831241
:1004280087010730990083168101FD30850083120A
:1004380085108316871516308312A0000030A1009E
:10044800E72183168711831287110030A000A100CD
:10045800A32183122008DF005F08B800FD30A00048
:100468000030A100E72101308312A0000030A10074
:10047800A32183122008DF005F08B7006030380628
:10048800031D472A482A4C2A0330B1000030B20025
:1004980025303806031D512A522A592A3708031DC8
:1004A800562A572A592AB101B20145303806031D88
:1004B8005E2A5F2A632A0230B1000030B20025307C
:1004C8003806031D682A692A722A3703031D6D2A14
:1004D8006E2A722A0130B1000030B2002530380689
:1004E8000319772A782A852A3703031D7C2A7D2A4F
:1004F800852A0130B1000030B2000130B30000306D
:10050800B4000130B1070318B20A0030B207972AC5
:10051800C721AA2AB722AA2A8221AA2A73218312CA
:10052800B101B201AA2A3208003A03199C2AAA2A60
:100538003108013A03198C2A033A03198E2A013A21
:100548000319902A073A0319922AAA2AB230831269
:10055800A0000030A100E72183120519B42AB52AAA
:10056800B02A852A002810308316870008308312A5
:100578008700851433033404031DC32AC42A882B37
:100588000130A0000030A1000130A2000030A3001B
:100598006421FD308312A0000030A100E721003063
:1005A8008312A000A100A32183122008DF005F08A6
:1005B800B60026303602031CE22AE32A0F2BA901D3
:1005C800AA01F42AB521FD308312A0000030A10051
:1005D800E72101308312A9070318AA0A0030AA07E5
:1005E8003608DB3EA600FF3003180030A7002708B6
:1005F800803AA8002A08803A2802031D052B2908FA
:1006080026020318082B092BE62A83123608DB3E3C
:10061800DF005F08B500253036020318142B152BB0
:10062800412BAB01AC01262B9121FD308312A00098
:100638000030A100E72101308312AB070318AC0A90
:100648000030AC070030A7003608253CA600031C84
:10065800A7032708803AA8002C08803A2802031D1F
:10066800372B2B08260203183A2B3B2B182B831207
:100678003608253CDF005F08B500B2308312A000C1
:100688000030A100E721822B05184B2B4C2B682B3F
:10069800B5210130DF005F088312B5073508253E14
:1006A800DF005F08AD000030A000A1002D08A60003
:1006B800A7012608A2002708A3006421B2308312EC
:1006C800A0000030A100E7218312051A6C2B6D2BC6
:1006D800822B912101308312B5023508253EDF00B7
:1006E8005F08AE000030A000A1002E08A600A701F8
:1006F8002608A2002708A3006421412B83120519AC
:10070800862B872B482BC721831233083404031DFB
:100718008E2B8F2BF32B0130A0000030A10001306D
:10072800A2000030A3006421FD308312A000003035
:10073800A100E72100308312A000A1002530A2000B
:100748000030A3006421B2308312A0000030A10061
:10075800E721ED2B0518B12BB22BCE2BB52101309B
:10076800DF005F088312B5073508253EDF005F0804
:10077800AF000030A000A1002F08A600A70126089E
:10078800A2002708A3006421B2308312A000003021
:10079800A100E7218312051AD22BD32BED2B91212F
:1007A80001308312B5023508253EDF005F08B0002E
:1007B8000030A000A1003008A600A7012608A2006A
:1007C8002708A3006421B2308312A0000030A100E2
:1007D800E72183120519F12BF22BAE2BC721080054
:1007E8008312B101B201B301B401B501B601B70179
:0607F800B8018301102A84
:02400E00B43FBD
:00000001FF
