:020000040000FA
:020000000F28C7
:10000800DE00030E8312A9000408AA000A08AB0048
:100018005F08AC004A2A10287723C1007823C20061
:10002800BB01BC01BD01BE01BF01C00183011C2889
:100038000130831685000710071187108512831277
:100048000710871007118510073099008316810162
:100058008B170B170B160514051605158711831238
:1000680087110330B8008A30B7005530B600B60B98
:100078003B28B70B3B28B80B3B284228831687152B
:1000880041308312B700EE30B600B60B4928B70BE3
:100098004928000083169B011C141A08DF005F081A
:1000A8008312C0008230B700DD30B600B60B5A2884
:1000B800B70B5A285F28013083169B001C141A08B6
:1000C800DF005F088312BF0060304006031D6D2803
:1000D8006E287128C101C2014423253083124006CD
:1000E800031D7728782882283F08031D7C287D284F
:1000F80082280130C1000030C200832245308312BB
:100108004006031D882889288E280430C100003045
:10011800C2003323253083124006031D94289528F6
:100128009F283F03031D99289A289F280230C10061
:100138000030C20006212530831240060319A52885
:10014800A628B4283F03031DAA28AB28B4280230E8
:10015800C1000030C2000130BB000030BC000621E5
:100168008312400A031DB928BA28FF288322FF28D2
:100178000518BF28C028D728CF220130DF005F0824
:100188008312BD0783169B0183123D08253EDF00BD
:100198005F08B900390883169A001C1555309D0070
:1001A800AA309D009C148312051ADB28DC28F1284C
:1001B800E82201308312BD0283169B0183123D0899
:1001C800253EDF005F08BA003A0883169A001C151E
:1001D80055309D00AA309D009C1402308312B8004F
:1001E8004530B700A930B600B60BF828B70BF82889
:1001F800B80BF828FF288312851803290429BC287E
:10020800FF280F28103083168700083083128700D4
:1002180085143B083C04031D122913293229013097
:1002280083169B0001309A001C1555309D00AA309A
:100238009D009C1482308312B000DD30AF00AF0BFC
:100248002329B00B2329282983169B0125309A00DE
:100258001C1555309D00AA309D009C1483123B0349
:100268003C04031D38293929A729013083169B002E
:1002780001309A001C1555309D00AA309D009C1431
:1002880082308312B000DD30AF00AF0B4929B00BCC
:1002980049294E2983169B011C141A08DF005F08A0
:1002A8008312BE0026303E02031C5B295C297E298E
:1002B8000130B2000030B3006929CF220130831227
:1002C800B2070318B30A0030B3073E08DB3EAF009D
:1002D800FF3003180030B0003008803AB10033080E
:1002E800803A3102031D7A2932082F0203187D292A
:1002F8007E296129253083123E0203188429852925
:10030800A7290130B4000030B5009229E822013055
:100318008312B4070318B50A0030B5070030B000DF
:100328003E08253CAF00031CB0033008803AB100FA
:100338003508803A3102031DA32934082F02031817
:10034800A629A7298A2908001030831687000830B3
:100358008312870085143B083C04031DB429B52982
:10036800D429013083169B0001309A001C155530A2
:100378009D00AA309D009C1482308312A300DD30BA
:10038800A200A20BC529A30BC529CA2983169B0164
:1003980025309A001C1555309D00AA309D009C14EC
:1003A80083123B033C04031DDA29DB29492A013067
:1003B80083169B0001309A001C1555309D00AA3009
:1003C8009D009C1482308312A300DD30A200A20B92
:1003D800EB29A30BEB29F02983169B011C141A089F
:1003E800DF005F088312BE0026303E02031CFD2991
:1003F800FE29202A0130A5000030A6000B2A01237F
:1004080001308312A5070318A60A0030A6073E0884
:10041800DB3EA200FF3003180030A3002308803A17
:10042800A4002608803A2402031D1C2A250822025B
:1004380003181F2A202A032A253083123E02031894
:10044800262A272A492A0130A7000030A800342A82
:100458001A2301308312A7070318A80A0030A80737
:100468000030A3003E08253CA200031CA303230878
:10047800803AA4002808803A2402031D452A270848
:1004880022020318482A492A2C2A08008B1C4D2AC4
:100498004E2A772A0130C1070318C20A0030C20762
:1004A800602AA922762AA821762A5523762A662345
:1004B8008312C101C201762A4208003A0319652A4B
:1004C800762A4108013A0319552A033A0319572A8B
:1004D800013A0319552A073A0319592A013A031907
:1004E8005B2A762A8B1083122C08DF002B088A00DF
:1004F8002A088400290E8300DE0E5E0E09001030E3
:1005080083168700013083128700851083169B01AC
:1005180025309A001C1555309D00AA309D009C146A
:1005280082308312AE00DD30AD00AD0B992AAE0BE0
:10053800992A9E2A013083169B009A011C15553072
:100548009D00AA309D009C14080010308316870077
:10055800013083128700851083169B0125309A008D
:100568001C1555309D00AA309D009C1482308312C2
:10057800A100DD30A000A00BBF2AA10BBF2AC42A0E
:10058800013083169B009A011C1555309D00AA3036
:100598009D009C1408008316071283120716413029
:1005A800AE00EE30AD00AD0BD72AAE0BD72A000057
:1005B800831207124130AE00EE30AD00AD0BE22AD7
:1005C800AE0BE22A000008008316871183128711F8
:1005D8004130AE00EE30AD00AD0BF02AAE0BF02A84
:1005E8000000831287154130AE00EE30AD00AD0B30
:1005F800FB2AAE0BFB2A00000800831607128312A1
:1006080007164130A100EE30A000A00B092BA10B6A
:10061800092B0000831207124130A100EE30A00020
:10062800A00B142BA10B142B0000080083168711B4
:10063800831287114130A100EE30A000A00B222BBD
:10064800A10B222B0000831287154130A100EE3048
:10065800A000A00B2D2BA10B2D2B000008000830AB
:100668008316870012308312870083169B0145305A
:100678009A001C1555309D00AA309D009C14080056
:1006880018308316870004308312870083169B0175
:1006980060309A001C1555309D00AA309D009C14AE
:1006A80008000830831687001230831287008316EB
:1006B8009B0145309A001C1555309D00AA309D00BD
:1006C8009C140800183083168700043083128700B2
:1006D80083169B0160309A001C1555309D00AA3086
:0A06E8009D009C140800013400344A
:00000001FF
